{
  "_format": "hh-sol-artifact-1",
  "contractName": "Fund",
  "sourceName": "contracts/FundContract.sol",
  "abi": [
    {
      "inputs": [],
      "stateMutability": "nonpayable",
      "type": "constructor"
    },
    {
      "inputs": [],
      "name": "Owner",
      "outputs": [
        {
          "internalType": "address",
          "name": "",
          "type": "address"
        }
      ],
      "stateMutability": "view",
      "type": "function"
    },
    {
      "inputs": [
        {
          "internalType": "address",
          "name": "",
          "type": "address"
        }
      ],
      "name": "customerBalance",
      "outputs": [
        {
          "internalType": "uint256",
          "name": "",
          "type": "uint256"
        }
      ],
      "stateMutability": "view",
      "type": "function"
    },
    {
      "inputs": [],
      "name": "depositMoney",
      "outputs": [],
      "stateMutability": "payable",
      "type": "function"
    },
    {
      "inputs": [],
      "name": "fundName",
      "outputs": [
        {
          "internalType": "string",
          "name": "",
          "type": "string"
        }
      ],
      "stateMutability": "view",
      "type": "function"
    },
    {
      "inputs": [],
      "name": "getCustomerBalance",
      "outputs": [
        {
          "internalType": "uint256",
          "name": "",
          "type": "uint256"
        }
      ],
      "stateMutability": "view",
      "type": "function"
    },
    {
      "inputs": [],
      "name": "getFundBalance",
      "outputs": [
        {
          "internalType": "uint256",
          "name": "",
          "type": "uint256"
        }
      ],
      "stateMutability": "view",
      "type": "function"
    },
    {
      "inputs": [
        {
          "internalType": "string",
          "name": "_name",
          "type": "string"
        }
      ],
      "name": "setFundName",
      "outputs": [],
      "stateMutability": "nonpayable",
      "type": "function"
    },
    {
      "inputs": [
        {
          "internalType": "uint256",
          "name": "_total",
          "type": "uint256"
        }
      ],
      "name": "withDrawMoney",
      "outputs": [],
      "stateMutability": "payable",
      "type": "function"
    }
  ],
  "bytecode": "0x608060405234801561001057600080fd5b50336000806101000a81548173ffffffffffffffffffffffffffffffffffffffff021916908373ffffffffffffffffffffffffffffffffffffffff160217905550610c49806100606000396000f3fe60806040526004361061007b5760003560e01c80639ce1413b1161004e5780639ce1413b1461010c578063a853409a14610137578063b4a99a4e14610162578063dae9e3791461018d5761007b565b806316c05aa21461008057806337ebe47b1461008a5780634377cd5e146100c7578063827cc452146100f0575b600080fd5b6100886101b8565b005b34801561009657600080fd5b506100b160048036038101906100ac91906106a6565b610254565b6040516100be9190610896565b60405180910390f35b3480156100d357600080fd5b506100ee60048036038101906100e991906106cf565b61026c565b005b61010a60048036038101906101059190610710565b610314565b005b34801561011857600080fd5b506101216103e1565b60405161012e9190610814565b60405180910390f35b34801561014357600080fd5b5061014c61046f565b6040516101599190610896565b60405180910390f35b34801561016e57600080fd5b506101776104b6565b60405161018491906107f9565b60405180910390f35b34801561019957600080fd5b506101a26104da565b6040516101af9190610896565b60405180910390f35b60003414156101fc576040517f08c379a00000000000000000000000000000000000000000000000000000000081526004016101f390610836565b60405180910390fd5b34600260003373ffffffffffffffffffffffffffffffffffffffff1673ffffffffffffffffffffffffffffffffffffffff168152602001908152602001600020600082825461024b9190610923565b92505081905550565b60026020528060005260406000206000915090505481565b60008054906101000a900473ffffffffffffffffffffffffffffffffffffffff1673ffffffffffffffffffffffffffffffffffffffff163373ffffffffffffffffffffffffffffffffffffffff16146102fa576040517f08c379a00000000000000000000000000000000000000000000000000000000081526004016102f190610856565b60405180910390fd5b8060019080519060200190610310929190610571565b5050565b60008054906101000a900473ffffffffffffffffffffffffffffffffffffffff1673ffffffffffffffffffffffffffffffffffffffff163373ffffffffffffffffffffffffffffffffffffffff1614801561036e57504781105b61037757600080fd5b60008054906101000a900473ffffffffffffffffffffffffffffffffffffffff1673ffffffffffffffffffffffffffffffffffffffff166108fc829081150290604051600060405180830381858888f193505050501580156103dd573d6000803e3d6000fd5b5050565b600180546103ee906109f7565b80601f016020809104026020016040519081016040528092919081815260200182805461041a906109f7565b80156104675780601f1061043c57610100808354040283529160200191610467565b820191906000526020600020905b81548152906001019060200180831161044a57829003601f168201915b505050505081565b6000600260003373ffffffffffffffffffffffffffffffffffffffff1673ffffffffffffffffffffffffffffffffffffffff16815260200190815260200160002054905090565b60008054906101000a900473ffffffffffffffffffffffffffffffffffffffff1681565b60008060009054906101000a900473ffffffffffffffffffffffffffffffffffffffff1673ffffffffffffffffffffffffffffffffffffffff163373ffffffffffffffffffffffffffffffffffffffff161461056b576040517f08c379a000000000000000000000000000000000000000000000000000000000815260040161056290610876565b60405180910390fd5b47905090565b82805461057d906109f7565b90600052602060002090601f01602090048101928261059f57600085556105e6565b82601f106105b857805160ff19168380011785556105e6565b828001600101855582156105e6579182015b828111156105e55782518255916020019190600101906105ca565b5b5090506105f391906105f7565b5090565b5b808211156106105760008160009055506001016105f8565b5090565b6000610627610622846108d6565b6108b1565b90508281526020810184848401111561063f57600080fd5b61064a8482856109b5565b509392505050565b60008135905061066181610be5565b92915050565b600082601f83011261067857600080fd5b8135610688848260208601610614565b91505092915050565b6000813590506106a081610bfc565b92915050565b6000602082840312156106b857600080fd5b60006106c684828501610652565b91505092915050565b6000602082840312156106e157600080fd5b600082013567ffffffffffffffff8111156106fb57600080fd5b61070784828501610667565b91505092915050565b60006020828403121561072257600080fd5b600061073084828501610691565b91505092915050565b61074281610979565b82525050565b600061075382610907565b61075d8185610912565b935061076d8185602086016109c4565b61077681610ae7565b840191505092915050565b600061078e602983610912565b915061079982610af8565b604082019050919050565b60006107b1603183610912565b91506107bc82610b47565b604082019050919050565b60006107d4603683610912565b91506107df82610b96565b604082019050919050565b6107f3816109ab565b82525050565b600060208201905061080e6000830184610739565b92915050565b6000602082019050818103600083015261082e8184610748565b905092915050565b6000602082019050818103600083015261084f81610781565b9050919050565b6000602082019050818103600083015261086f816107a4565b9050919050565b6000602082019050818103600083015261088f816107c7565b9050919050565b60006020820190506108ab60008301846107ea565b92915050565b60006108bb6108cc565b90506108c78282610a29565b919050565b6000604051905090565b600067ffffffffffffffff8211156108f1576108f0610ab8565b5b6108fa82610ae7565b9050602081019050919050565b600081519050919050565b600082825260208201905092915050565b600061092e826109ab565b9150610939836109ab565b9250827fffffffffffffffffffffffffffffffffffffffffffffffffffffffffffffffff0382111561096e5761096d610a5a565b5b828201905092915050565b60006109848261098b565b9050919050565b600073ffffffffffffffffffffffffffffffffffffffff82169050919050565b6000819050919050565b82818337600083830152505050565b60005b838110156109e25780820151818401526020810190506109c7565b838111156109f1576000848401525b50505050565b60006002820490506001821680610a0f57607f821691505b60208210811415610a2357610a22610a89565b5b50919050565b610a3282610ae7565b810181811067ffffffffffffffff82111715610a5157610a50610ab8565b5b80604052505050565b7f4e487b7100000000000000000000000000000000000000000000000000000000600052601160045260246000fd5b7f4e487b7100000000000000000000000000000000000000000000000000000000600052602260045260246000fd5b7f4e487b7100000000000000000000000000000000000000000000000000000000600052604160045260246000fd5b6000601f19601f8301169050919050565b7f596f75206e65656420746f206465706f73697420736f6d6520616d6f756e742060008201527f6f66206d6f6e6579210000000000000000000000000000000000000000000000602082015250565b7f596f75206d75737420626520746865206f776e657220746f207365742074686560008201527f206e616d65206f66207468652062616e6b000000000000000000000000000000602082015250565b7f596f75206d75737420626520746865206f776e6572206f66207468652062616e60008201527f6b20746f2073656520616c6c2062616c616e6365732e00000000000000000000602082015250565b610bee81610979565b8114610bf957600080fd5b50565b610c05816109ab565b8114610c1057600080fd5b5056fea26469706673582212207ab2ebec8ac0f87ba03c6d25e1e5d965b66c907ef985ba5718294077e2132f7764736f6c63430008040033",
  "linkReferences": {},
  "deployedLinkReferences": {}
}